:0200000056297F
:10000800FF00030E8301BE000A08BD008A017008C4
:10001800A0000B1D4428E7308100A70A0319A80A8D
:100028002A082802031D1A282908270203181E284F
:10003800861720287F30860500302802031D2628D1
:10004800C8302702031C2A28A701A8012408003C5D
:10005800031D38282308003C031D38282208003CCB
:10006800031D38282108003C031842280130A1024A
:10007800031CA202031CA302031CA402FB308B0571
:100088002008F0003D088A003E0E8300FF0E7F0E18
:0200980009005D
:10009A0083120313F801F9011030FC00710DF80DF9
:1000AA00F90D7408F8027508031C750FF902031894
:1000BA0065287408F80775080318750FF9070310FF
:0A00CA00F00DF10DFC0B53280800A7
:1000D40083120313FB01FA01F9018030F800F10CDB
:1000E400F00C031C7E287408F90775080318750FB3
:1000F400FA070318FB0A0310F01F86287408FA078E
:1001040075080318750FFB07FB0CFA0CF90CF80CB7
:10011400031C71287B08F3007A08F2007908F100C7
:060124007808F00008005D
:0E012A008312031338088A0037088200080089
:10013800C730831203130705F000033070048700EB
:0801480095013F089B0008002F
:1001500095208A110A128000840AB70A0319B80A86
:08016000F003031DA8280800AC
:10016800D730831203130705F00017307004870097
:0A0178003F0895003F089B000800B7
:10018200C0308312031387059B011B0895000800EA
:10019200CB30831203130705F0000B307004870085
:0A01A2003F0895003F089B0008008D
:1001AC0083120313C101C2016030C300EA30C400E2
:1001BC003F09F000700886050000000000000000F8
:1001CC003F0886040630FD00FD0BEA2800003F09BD
:1001DC00F0007008860540080605F000031D08298C
:1001EC000130C302031CC40300304406031D002964
:1001FC0000304306031D0729E830F0000330F100FE
:10020C002629F1286030C300EA30C40040080605F6
:10021C00F00003192229C10A0319C20A0130C302D2
:10022C00031CC40300304406031D1E290030430682
:10023C00031D212922290C294108F0004208F10054
:02024C000800A8
:10024E00D630831203130705F000143070048700B4
:08025E003F0895009B01080018
:10026600831203134008003C031D3B293F08B43C9E
:1002760003184029B430BF00C0013F08F000400811
:10028600F1000A30F4000030F5006A20B430F400C2
:10029600F5014D2070080A3EA90000300318013E02
:0602A6007107AA00080028
:1002AC0083120313A101A201A301A4015A30A500DA
:1002BC00A601A701A8010F30A900AA01C830AB0004
:1002CC00AC010130AD00E030AE000130AF00503079
:1002DC00B000B101B2015030B300B4015030B500E0
:1002EC00B6011F30FB007130FC001E30FD00FD0B11
:1002FC007D29FC0B7D29FB0B7D2900000130831629
:10030C0085004630860080308700303088008312AC
:10031C008801080887000708860006088500023057
:10032C0083168100E73083128100A0308B004130AE
:10033C009F00863083169F00073083129200FA309C
:10034C00831692000C3083129D001D089700320812
:10035C00003A031D092A0619BB298618BB29300847
:10036C00BF003108C000B420CC290619C3293508B8
:10037C00BF003608C0009C20CC298618CB29330836
:10038C00BF003408C0002721CC29C1200D30FD004E
:10039C00FD0BCE291F151F1DD429D1291E08F300D2
:1003AC00F4017308F100F00183161E087004F200CA
:1003BC007108F3000030F30472088312BB00730859
:1003CC00BC0073082F02031DED2972082E020318BE
:1003DC00F2290815AD01082A08112D08003A031D51
:1003EC00082A0930FB001E30FC00E430FD00FD0B38
:1003FC00FD29FC0BFD29FB0BFD2900000130B2008F
:10040C000130AD00BA2A3208013A031D472A2030C8
:10041C00BF004030C000D6207008B9007108BA0087
:10042C002C087102031D1C2A2B087002031C212AA4
:10043C000230B200AD293008BF003108C000C9201D
:10044C000430FB000C30FC003330FD00FD0B2C2A7B
:10045C00FC0B2C2AFB0B2C2A000000002508BF00EB
:10046C002608C00027210530FB000F30FC00F130BE
:10047C00FD00FD0B3F2AFC0B3F2AFB0B3F2AC12042
:10048C00BA2A3208023A031D752A06300605F10015
:10049C007108063A031D552A0330B200AD292030ED
:1004AC000805F1007108003A031D622A2508BF00F7
:1004BC002608C0009C20742A10300805F100710831
:1004CC00003A031D6F2A2508BF002608C00027210B
:1004DC00742A3008BF003108C000B420BA2A320890
:1004EC00033A031DBA2A08150330FB000830FC0040
:1004FC007730FD00FD0B802AFC0B802AFB0B802A39
:10050C0008110330FB000830FC007730FD00FD0BB8
:10051C008D2AFC0B8D2AFB0B8D2AC1200630FB008B
:10052C001330FC00AD30FD00FD0B9A2AFC0B9A2A0F
:10053C00FB0B9A2A000000003008BF003108C000F5
:10054C00B4200730FB001730FC006A30FD00FD0BB7
:10055C00AD2AFC0BAD2AFB0BAD2A0000C120B43038
:0C056C00BF00C0013321B92AAD29BB2A11
:02400E004A2F37
:00000001FF
